:020000040000fa
:080000000002040000000000f2
:020000040000fa
:040008008e03000063
:020000040000fa
:04000c008e0300005f
:020000040000fa
:040010008e0300005b
:020000040000fa
:040014008e03000057
:020000040000fa
:040018008e03000053
:020000040000fa
:04001c008e0300004f
:020000040000fa
:040020008e0300004b
:020000040000fa
:040024008e03000047
:020000040000fa
:040028008e03000043
:020000040000fa
:04002c002a030000a3
:020000040000fa
:040030008e0300003b
:020000040000fa
:040034008e03000037
:020000040000fa
:040038008e03000033
:020000040000fa
:04003c008e0300002f
:020000040000fa
:040040008e0300002b
:020000040000fa
:040044005e03000057
:020000040000fa
:04004800660300004b
:020000040000fa
:04004c008e0300001f
:020000040000fa
:040050008e0300001b
:020000040000fa
:040054008e03000017
:020000040000fa
:040058008e03000013
:020000040000fa
:04005c007e0300001f
:020000040000fa
:040060008e0300000b
:020000040000fa
:040064008e03000007
:020000040000fa
:040068008e03000003
:020000040000fa
:04006c008e030000ff
:020000040000fa
:040070008603000003
:020000040000fa
:04007400c8020000be
:020000040000fa
:040078008e030000f3
:020000040000fa
:04007c008e030000ef
:020000040000fa
:040080008e030000eb
:020000040000fa
:040084008e030000e7
:020000040000fa
:040088008e030000e3
:020000040000fa
:04008c008e030000df
:020000040000fa
:040090008e030000db
:020000040000fa
:040094008e030000d7
:020000040000fa
:040098008e030000d3
:020000040000fa
:04009c008e030000cf
:020000040000fa
:0400a0006e030000eb
:020000040000fa
:0400a40076030000df
:020000040000fa
:0400a8008e030000c3
:020000040000fa
:0400ac008e030000bf
:020000040000fa
:0400b0008e030000bb
:020000040000fa
:0400b4008e030000b7
:020000040000fa
:0400b8008e030000b3
:020000040000fa
:0400bc008e030000af
:020000040000fa
:0400c0008e030000ab
:020000040000fa
:0400c4008e030000a7
:020000040000fa
:0400c8008e030000a3
:020000040000fa
:0400cc008e0300009f
:020000040000fa
:0400d0008e0300009b
:020000040000fa
:0400d4008e03000097
:020000040000fa
:0400d8008e03000093
:020000040000fa
:0400dc008e0300008f
:020000040000fa
:0400e0008e0300008b
:020000040000fa
:0400e4008e03000087
:020000040000fa
:0400e8008e03000083
:020000040000fa
:0400ec008e0300007f
:020000040000fa
:0400f0008e0300007b
:020000040000fa
:0400f4008e03000077
:020000040000fa
:0400f8008e03000073
:020000040000fa
:0400fc008e0300006f
:020000040000fa
:040100008e0300006a
:020000040000fa
:040104008e03000066
:020000040000fa
:040108008e03000062
:020000040000fa
:04010c008e0300005e
:020000040000fa
:040110008e0300005a
:020000040000fa
:040114008e03000056
:020000040000fa
:040118008e03000052
:020000040000fa
:04011c008e0300004e
:020000040000fa
:040120008e0300004a
:020000040000fa
:040124008e03000046
:020000040000fa
:040128008e03000042
:020000040000fa
:04012c008e0300003e
:020000040000fa
:040130008e0300003a
:020000040000fa
:040134008e03000036
:020000040000fa
:040138008e03000032
:020000040000fa
:04013c008e0300002e
:020000040000fa
:040140008e0300002a
:020000040000fa
:040144008e03000026
:020000040000fa
:040148008e03000022
:020000040000fa
:04014c008e0300001e
:020000040000fa
:040150008e0300001a
:020000040000fa
:040154008e03000016
:020000040000fa
:040158008e03000012
:020000040000fa
:04015c008e0300000e
:020000040000fa
:040208008e03000061
:020000040000fa
:04020c008e0300005d
:020000040000fa
:040210008e03000059
:020000040000fa
:040214008e03000055
:020000040000fa
:040218008e03000051
:020000040000fa
:04021c008e0300004d
:020000040000fa
:040220008e03000049
:020000040000fa
:040224008e03000045
:020000040000fa
:040228008e03000041
:020000040000fa
:04022c002a030000a1
:020000040000fa
:040230008e03000039
:020000040000fa
:040234008e03000035
:020000040000fa
:040238008e03000031
:020000040000fa
:04023c008e0300002d
:020000040000fa
:040240008e03000029
:020000040000fa
:040244005e03000055
:020000040000fa
:040248006603000049
:020000040000fa
:04024c008e0300001d
:020000040000fa
:040250008e03000019
:020000040000fa
:040254008e03000015
:020000040000fa
:040258008e03000011
:020000040000fa
:04025c007e0300001d
:020000040000fa
:040260008e03000009
:020000040000fa
:040264008e03000005
:020000040000fa
:040268008e03000001
:020000040000fa
:04026c008e030000fd
:020000040000fa
:040270008603000001
:020000040000fa
:04027400c8020000bc
:020000040000fa
:040278008e030000f1
:020000040000fa
:04027c008e030000ed
:020000040000fa
:040280008e030000e9
:020000040000fa
:040284008e030000e5
:020000040000fa
:040288008e030000e1
:020000040000fa
:04028c008e030000dd
:020000040000fa
:040290008e030000d9
:020000040000fa
:040294008e030000d5
:020000040000fa
:040298008e030000d1
:020000040000fa
:04029c008e030000cd
:020000040000fa
:0402a0006e030000e9
:020000040000fa
:0402a40076030000dd
:020000040000fa
:0402a8008e030000c1
:020000040000fa
:0402ac008e030000bd
:020000040000fa
:0402b0008e030000b9
:020000040000fa
:0402b4008e030000b5
:020000040000fa
:0402b8008e030000b1
:020000040000fa
:0402bc008e030000ad
:020000040000fa
:0402c0008e030000a9
:020000040000fa
:0402c4008e030000a5
:020000040000fa
:0402c8008e030000a1
:020000040000fa
:0402cc008e0300009d
:020000040000fa
:0402d0008e03000099
:020000040000fa
:0402d4008e03000095
:020000040000fa
:0402d8008e03000091
:020000040000fa
:0402dc008e0300008d
:020000040000fa
:0402e0008e03000089
:020000040000fa
:0402e4008e03000085
:020000040000fa
:0402e8008e03000081
:020000040000fa
:0402ec008e0300007d
:020000040000fa
:0402f0008e03000079
:020000040000fa
:0402f4008e03000075
:020000040000fa
:0402f8008e03000071
:020000040000fa
:0402fc008e0300006d
:020000040000fa
:040300008e03000068
:020000040000fa
:040304008e03000064
:020000040000fa
:040308008e03000060
:020000040000fa
:04030c008e0300005c
:020000040000fa
:040310008e03000058
:020000040000fa
:040314008e03000054
:020000040000fa
:040318008e03000050
:020000040000fa
:04031c008e0300004c
:020000040000fa
:040320008e03000048
:020000040000fa
:040324008e03000044
:020000040000fa
:040328008e03000040
:020000040000fa
:04032c008e0300003c
:020000040000fa
:040330008e03000038
:020000040000fa
:040334008e03000034
:020000040000fa
:040338008e03000030
:020000040000fa
:04033c008e0300002c
:020000040000fa
:040340008e03000028
:020000040000fa
:040344008e03000024
:020000040000fa
:040348008e03000020
:020000040000fa
:04034c008e0300001c
:020000040000fa
:040350008e03000018
:020000040000fa
:040354008e03000014
:020000040000fa
:040358008e03000010
:020000040000fa
:04035c008e0300000c
:020000040000fa
:100400006fcb20000edf20000e01880000000000ee
:10041000000020000000e000020032000001200087
:100420002002880014000700c90007000000e00057
:1004300003003a00006e2100010020000200370096
:100440000000200001002000810f70000100320038
:1004500014000700000020000000e000020032004d
:1004600000000200000000001a1702000000000057
:100470000040da000000fe004440a900a006200071
:100480000000e0000300320000002000a00188000e
:100490004440a800000006008a1f78008b1f7800e7
:1004a0000000060091018800800478000000eb0045
:1004b0001a003700e284440032a0b4009905ba0063
:1004c000e284440032a0b4009906ba00e2844400f9
:1004d00032a0b4000006eb00476fde00fd07b2005b
:1004e000636ce10003003a00ebff07000000eb0043
:1004f0000a003700606ce10004003a00005deb0088
:100500008b05e900fdff3e00040037006168e10053
:10051000010032000086eb000b00070019c7ba008b
:100520001905ba000e04e00003003a000a00e000da
:10053000e0ff3a0000000600fe07b2009e018800be
:100540008a047800f5ff3700395dba008b05e900b1
:100550000c003200295dba008b05e900080032006a
:100560000c00e00003003a00e284440032a0b40032
:10057000f5ff370019ddba008b05e900faff3a00f4
:100580008904e800e184440032a0b40000000600c1
:10059000801f78000000fa003004800068006000ce
:1005a0000000e000240032001016800064006000ab
:1005b0000000e00003003a001000200040608800c6
:1005c0000500370010168000640060000000e000a5
:1005d00001003200082cef0050168000700060000f
:1005e0000000e00003003a00100020006060880076
:1005f0000500370050168000700060000000e00029
:10060000010032000c2cef0010168000700060001a
:100610000000e00003003a00100020005060880055
:100620000500370010168000700060000000e00038
:10063000010032000a2cef008660a90000000000d3
:1006400010002000706088000080fa004f007800e1
:10065000004006003600f800809fbe00829fbe006a
:10066000849fbe00869fbe000000fa00e06080000c
:100670000000e00004003a0010002000e060880064
:100680005d0907000500370063090700d060880096
:100690001c2cef0010002000c06088008420a900fe
:1006a0000080fa004f03be004f02be004f01be00a3
:1006b0004f00be003600f900004006000000fa00be
:1006c00084e0a9000080fa00004006000000fa0063
:1006d0008500a9000080fa00004006000000fa0032
:1006e00087c0a9000080fa00004006000000fa0060
:1006f00087e0a9000080fa00004006000000fa0030
:1007000085a0a9000080fa00004006000000fa0061
:100710008640a9000080fa00004006000040da0090
:100720000000fe00000178001001e2000200350028
:100730001061a80011e1a800300880004108800085
:100740000200e000010032000089be000000060047
:100750000000050003f0a200889fbe008a9fbe0033
:100760008c1f7800f8000700ff0033006450e100a0
:100770004f0032006420e1005200320003826c001e
:1007800007003b000905d0000306d000820f54008b
:100790000c065d0002003900020032008901780079
:1007a000030678008582550004003d000003fd002b
:1007b0008103fd008502ea008b854200840f7200f0
:1007c00002003b0060001000e08018006011b800db
:1007d0000005eb007a28e1000a00390006007800e5
:1007e000c75ddd00f707b200878075002d00370078
:1007f000828171000a017800610560008180d1006a
:100800000080d3008502e900f9ff3b0006044000a8
:100810008784480002003b0060041400e0841c0050
:100820000988a300070032008a817100828171006b
:10083000610164008904d1000884d3008b05e800bd
:10084000170037000978a30013003a000b00e000fe
:10085000130034008b05e9000804440089844c002f
:100860000a4474000978a3000d003a000b00e00070
:10087000070034008b05e9000804440089844c001b
:1008800001003a000b0020000978a300f7ff3200b6
:100890000001eb0002003700828171000a0178003c
:1008a0006e0007000cf0a70001f0a000b7003700b1
:1008b0006420e10002003a00838f6c00b70033002f
:1008c0000801be000200be00b0003700889fbe00d5
:1008d0008a9fbe008c1f78009b000700a200330097
:1008e00003866c006450e1002e0032006420e100b9
:1008f000330032006150e1002f0032006120e1003e
:100900003100320085855500eb07b000090020005a
:1009100008042000050037000804440089844c00c6
:100920000a0031000603430087834b000001530097
:1009300081815b00f8ff33000203be000800a000c5
:100940000804440089844c00f6ff3900c639dd00f4
:100950008301730001003200130020008904d100dc
:100960000884d3000998a300050032000800a700fe
:100970000300a0008904d1000884d3008b05e8009f
:100980008904d1000884d3000001eb000281d20069
:100990003200070001f0a1000cf0a70001f0a00058
:1009a0007a0037006420e1007c0032000801be00bc
:1009b0000200be00f7ff37006120e100770032003f
:1009c0006000b800f3ff37000000200001f82700a6
:1009d000f0ff3700f4ff2f00300237000001be00a7
:1009e000440007000470a70003f0a10003f8a3006f
:1009f00013003a006509b10010003200090035000b
:100a00006928e1000200350001002800000005000f
:100a100000004000818048008502e900fcff3a00a8
:100a200000000600f88f4200050035008100d1006b
:100a30000080d3008502e800fcff3a0000000600b9
:100a40008000eb00000005004f89de008201780085
:100a5000500237006011b8005e02370081002000ac
:100a6000618055000b003d000b00200061fe2f004f
:100a70000100e1001d003400828171006101640009
:100a80008904d1000884d3000000e800faff3a008e
:100a9000710020006100640003007000020060002b
:100aa0000900320061044400e0844c000988a5007c
:100ab000050032008b05e8006808e10002003a00fa
:100ac0008904d1000884d300f20f20000258e1000d
:100ad00005003d00c75ddd00f907b20089807500a3
:100ae00008007800000006000bf827008b00780053
:100af00000000500c70ade00f107b200f50fb200e2
:100b000008003200e1cf4200020032000170a00074
:100b100024000500810f7000010032000408050068
:100b200044000500810f700002003a001400050027
:100b30008502e9000000400081c04800fcff3b0046
:100b40000170a000240005000004be00e9ff0700ba
:100b50000003be000405be000200be00e5ff070062
:100b6000844f7500000006000200be006450e100e2
:100b7000050036006420e100020036000968a30089
:100b800001003a000800be000160a0004f06780096
:100b90004f05be004f04be0000000600f0ff2f000e
:100ba000f1ff2700f9ff3700889fbe008a9fbe0033
:100bb0008c1f7800e4ff0700ebff330003866c0016
:100bc0006450e100240032006420e100270032007c
:100bd0006150e100220032006120e100210032007a
:100be0008b854200eb07b1000134b800003ab80031
:100bf0000804420089844a00013ab8000030b80075
:100c00008880400009014a000400330000004000d1
:100c100081804800020149008b05e900c909dd0017
:100c2000830170000100320013002000c814de00b0
:100c30004814dd004709de001200b200c808de00db
:100c40000884700085ff070001f0a1000cf0a700e8
:100c500001f0a000cdff37006120e100cfff32009e
:100c60000801be000200be00f7ff37006150e1003e
:100c7000fcff3a00c9ff37000c00fa00889fbe0055
:100c80008a9fbe008c9fbe00afff07000206be0019
:100c9000840578000200be00020020005801070011
:100ca00005003a008b02b300120020005401070037
:100cb00001003a00f8856d000c01be00c600070077
:100cc0000800be009b0032000b08a3009e003a0003
:100cd0000df0a7000be0a00009f0a7000bf0a000aa
:100ce00009f0a1000801be00bb0007000bf0a60040
:100cf0009500320001003c000bd0a0008acf7500a7
:100d0000b20033006000b8006250e1009900390081
:100d1000a1003e000b28a300a2003a000bf8a3009c
:100d2000060032000b58a300a70032000801be00e5
:100d3000a90007000800be00940032000800be00b1
:100d4000c00007000004be00050578000bf0a700f6
:100d50000b30a6000bf0a1005b079800324f20007b
:100d600053f323006801070005003d000800be00a2
:100d700012002000c60107000004be000a05e900b9
:100d80004a0798006150b9002fff0700008fbe008e
:100d90000c01be0084ff07005d01070030079800ca
:100da0000100e00002003d0060001000e08018003b
:100db000f2ff2700820f5000e08f580064003e00d1
:100dc0000c00be005201070020079800f207200027
:100dd000820f5000e08f580005003c0012f82f00f1
:100de000f3ff2f00820f5000838f580009003d0051
:100df0000a00e0000300320001003c000201ea00aa
:100e0000020578006000b800200798003a079800b3
:100e1000190037003e0090006100b9000aff07008a
:100e2000809fbe000c00be004109dd004811de00bd
:100e30007208b100f20007000005be001e01be00ee
:100e400059ff07004f01be0042fe0700809fbe0011
:100e50000c00be000a01be003efe07001e01be00df
:100e600051ff07004f01be003bfe07008221270013
:100e700013f323004cff07000005be002e00900076
:100e80006100b900f0fe070001f0a2000c01be00f5
:100e900031fe07000006be000800be009e010700ec
:100ea0000c01be0040ff07000a01be002afe070039
:100eb000809fbe004a0007002e0590000af0a700a0
:100ec0000a05ea00050037000800be000801be0060
:100ed00035ff07000004be000c00be000801be0084
:100ee0000a00a70030ff07000006be000a05d10077
:100ef000f5ff3a005e01900002e0a6000300370013
:100f00000001be003600070070fe07000004be00ae
:100f10004f00be00580007000801be0022ff070076
:100f20003e0190005a010700de0590000bf0a7007b
:100f300001f0a2004f06be004f05be004f04be00e8
:100f40000080fa000000060025000700f9ff3700c6
:100f5000270007006000b8000bd0a7000bc0a0005e
:100f60000be0a7000bc0a2000bc0a70001f82700f0
:100f7000f0ff37000df8a300020032001e0007004a
:100f8000190007000bf8a300eaff32000b30a7009e
:100f900001f0a200e7ff37000df8a300f9ff3a00c7
:100fa000f7ff37000801be000b000700e6ff320024
:100fb00001003c000df0a2006000b8000df0a70099
:100fc00009000700dbff37000b000700f1ff2700d7
:100fd000f0ff2f00d7ff370001000700ca003700dd
:100fe00001f823000000050001f8270000000500bb
:100ff000200220000100370010022000306188002c
:10100000000006006022b800060220000000d000a8
:101010008180d2000482d2008582d2000000a0002c
:101020000202520083825a00030031000202420091
:1010300083824a000000a1000603e900f3ff3a00a2
:10104000000006000003be00aafe07006220e100c7
:10105000020032000600be0005000500e507b100f1
:10106000f107b20004f023008480700007f0a700ad
:1010700001f0a00024000500889fbe008a9fbe00ea
:101080008c9fbe000004be009afe07000800be0050
:101090006420e10048003e00550032007221270024
:1010a000132b24004bfe070047003c000800be0045
:1010b000c2ec2800e32c2c00930007004700350009
:1010c0000800be0001f0a100020020000338230048
:1010d0008d000700430035000800be00b2a32a00bf
:1010e00083fb2300b0fe07000200200003f0230072
:1010f00001f0a70003f0a00097fd0700840007009f
:101100000005be0050fe070001f0a2000006be0070
:101110000200280013f32300a3fe07000801be000d
:101120008dfd0700809fbe000c00be003208280025
:10113000e3952b009cfe07004f01be0086fd0700d3
:101140000006be000001be0097fe0700809fbe00a3
:101150004241250083b8230093fe070002002000cf
:1011600003e823007cfd07000c01be008efe070093
:101170000006be004f00be00f2f92b00c3d42300ce
:1011800089fe07000200200003f0230072fd070023
:101190000c01be006ffd07000001be000c00be0088
:1011a000cafd07000200200003f023006afd0700cb
:1011b00061014500b60007004f06be004f05be00a6
:1011c0004f04be000000060001f8270000002000c8
:1011d0002202200032618800f7ff37006000b8006b
:1011e000fbff370001f8230000002000f2ff37006a
:1011f00009f8a300f0ff32006000b800eeff3700ee
:10120000889fbe008a9fbe000003be0039fe070013
:101210008505780082815200020020006220e100f2
:1012200004003a00f307b100040035007718e1002c
:10123000040035000600be00140037006000b8004e
:101240000f003700f50f2000faff2f008502d100b4
:101250000a85d3008301e900fcff3b008184620022
:1012600000046500890f7400f2ff32008582ea00f5
:101270000a85ea008184620000046500f7fd07002a
:1012800007f0a70001f0a0000081eb000200e000e1
:101290004f05be004f04be0000000600889fbe0040
:1012a0008a9fbe00841f780027fe07004f00780049
:1012b00011003300f0ff2f00838f6c0006003b000d
:1012c000040565000a00a7000800370009f0a60021
:1012d0001000200008003700820f5400838f5c004c
:1012e000030039001000200001003e000000200033
:1012f00009f0a7000000ea004f05be004f04be0041
:101300000000e0000000060014002000e3ff3700aa
:101310000001be00f7fd07000470a70003f0a10064
:101320006509b100160032000d0035006828e100a3
:1013300006003500f0ff2f00f1ff27000300e0005a
:1013400013003b00010028000000050000004000e1
:10135000818048008502e900fcff3a000800370060
:10136000f88f420002003c008000eb000000050006
:101370008100d1000080d3008502e800fcff3a0024
:101380000300e00002003b0060001000e080180055
:1013900000000600881f7800030478000300e000c6
:1013a00007003d0060001000e08018006001190097
:1013b000e081190002003b0001f02d00030037001e
:1013c0000400070008f0a70001f0a0004f04780017
:1013d00000000600889fbe008a9fbe000082700049
:1013e0000402710004827100260032000004be0075
:1013f0000200be006011b8006b09200095022000b9
:101400000182cf000a0039000541b1000082cf00ff
:10141000070039000541b1000982cf0004003900fe
:101420000541b1000882cf00010039000541b1003b
:1014300005425200120032000a003b008281710016
:10144000610164008100d1000080d3008984d30051
:101450000884d3008b05e8000442e800f7ff3a0057
:10146000070037000804440089844c00000048004d
:10147000818048008b05e9000442e900f9ff3a0049
:1014800076fd07004f05be004f04be0000000600b9
:101490000003be0097fd07006220e1000200320059
:1014a0000600be000000060085024100e30f200098
:1014b0000328e10005003c00a3fe2f000328e10003
:1014c00007003d000500200001003700f50f200057
:1014d00020022000306188006000b800080037005a
:1014e000130020008381520005003d008100d100df
:1014f0000080d3008301e800fcff3a0005002000d3
:10150000c72add00f107b2008580700007f0a70050
:1015100001f0a00000000600889fbe008a9fbe0068
:101520008c9fbe00c7fe0700850478000005be0042
:101530006420e10049003e006220e1000300320027
:10154000090035000bf8a300440032000bf8a3009b
:10155000080032001002200030618800f0ff2f00e8
:10156000f1ff27003d00370001f82f0000002000a8
:101570003a0037003d00070076fc07000006be0079
:101580000a00be00324f200053f3230011fd070074
:10159000060034000c00be00340007006dfc07009c
:1015a0000006be000a00be00020037008904e90000
:1015b0000c00be002d0007007bfd07002b0007007c
:1015c00065fc07000001be000c00be00bffc070068
:1015d0000005be000001be0073fd07000006be004e
:1015e000a2f32300430d2c005bfc0700809fbe008c
:1015f0000c00be00d2e32700d3f02b006afd0700e9
:101600004f01be00b1fc07000006be000a01be008b
:1016100065fd07000a01be004ffc07000006be0082
:101620006148b90008fd07000005be003208280027
:10163000e3952b005cfd07000c01be0046fc070093
:101640000006be000a00be000200280013f32300bb
:1016500055fd07000c01be003ffc07004f06be0011
:101660004f05be004f04be000000060003f023003b
:1016700002000500889fbe000004780050618000d1
:101680000000e000010032000000010080c22000e4
:101690000048eb00606180000000e00001003200c3
:1016a000000001008004eb0098658800a9658800af
:1016b0004f04be00000006008000780001017800a1
:1016c0003104e000fdff3a00000051000000060078
:1016d000881f7800506180000000e00001003200a7
:1016e00000000100606180000000e00001003200a5
:1016f0000000010080c220001004e00024003a0035
:1017000090658000a165800088002000d2602600de
:101710009301200037000700f2352f00e3c62300b5
:1017200000004100818049000804e900f7ff3a0009
:10173000d2602600930120002e000700f2352f0012
:10174000e3c623000000410081804900c241dd0062
:1017500022c32000028141000089be000804e80085
:1017600002022000820f5400f1ff3a0090658800c9
:10177000a1658800706580008165800070618800c7
:101780008161880011c0b30080c220000148780048
:10179000d26026009301200090658000a165800042
:1017a00014000700f2352f00e3c6230000024100b9
:1017b0008182490094658800a5658800e0c2200008
:1017c000100078007f0160004211dd0020c320007e
:1017d000000141001200be00706188008161880034
:1017e0000489be000100780000f0a1004f047800d9
:1017f00000000600020ab900001bb9000200b80090
:0c1800008100420081004300000006004f
:020000040000fa
:10180c00564f00004c5400004d450000544500005c
:10181c0052200000566f00006c74000061670000dd
:10182c00652000003d200000002e00000056000046
:10183c00004f0000484d00004d450000544500008d
:10184c0052200000526500007369000073740000a0
:10185c00616e000063650000203d00002000000068
:10186c006f6800006d7300000043000061700000a1
:10187c006163000069740000616e00006365000024
:10188c00203d0000200000007546000000200000f4
:10189c004672000065710000756500006e63000003
:1018ac00792000003d200000004800007a00000074
:1018bc001b5b00003f320000356c0000001b000079
:1018cc005b3100003b310000481b00005b32000024
:0418dc004a000000be
:020000040000fa
:1018e0000200fa00000f780021e3a90021a3a9005b
:1018f00001198000f0cf2f000080600000198800df
:1019000001198000000e20000100700000198800fd
:101910002043a9002023a90011198000f0ff210015
:1019200000806000101988002343a900111980006d
:1019300030fc2f0000806000c001b3001019880047
:101940002223a8002203a90025e3a9002119800071
:1019500000f021000100700020198800211980008a
:10196000f003200001007000201988001e0078009c
:10197000e30f50000f003a0029e3a900411980004d
:10198000f00f2f00808060000050200001007000e8
:101990004019880028e3a9004119800000ff2f00aa
:1019a000008060005000b30040198800c062a800a9
:1019b0002ca3a9001e007800ed0f50000f003a0084
:1019c00029e3a90041198000f00f2f0080806000fa
:1019d00000b02000010070004019880028e3a90031
:1019e0004119800000ff2f0000806000b000b300ac
:1019f00040198800c9a2a8002d63a9001e00780024
:101a0000ec0f50000f003a0029e3a90041198000b3
:101a1000f00f2f008080600000c0200001007000e7
:101a20004019880028e3a9004119800000ff2f0019
:101a300000806000c000b30040198800c982a8007f
:101a40002d83a9000080eb00601988003023ef008f
:101a500051058000f0f82f00808060000005200014
:101a6000010070005005880021e3a8000080fa0002
:101a7000000006000000fa0021e3a90021a3a9004c
:101a800001198000f0cf2f0000806000001988004d
:101a900001198000f0f12f0000806000001988001b
:101aa0002043a9002023a90011198000f0ff210084
:101ab00000806000101988002343a90011198000dc
:101ac00030fc2f0000806000101988002223a9003c
:101ad0002203a90025e3a90021198000f00f2e00a0
:101ae00000806000201988002119800000fc2f0070
:101af000008060002019880029e3a90041198000b6
:101b0000f00f2f0080806000005020000100700066
:101b10004019880028e3a9004119800000ff2f0028
:101b2000008060005000b30040198800c062a80027
:101b30002ca3a90021e3a8000080fa000000060001
:101b40000200fa000000eb00000f780085a0a90059
:101b50002043a800000000002104800000002200b3
:101b6000008060000000e000fbff32002043a9007d
:101b70001119800000082000008060000000e000d3
:101b8000110032000018800000408800101880000a
:101b90001040880020188000204088003018800005
:101ba0003040880040188000404088005018800075
:101bb00050408800601880006040880070188000e5
:101bc0007040880010003700801880008040880036
:101bd0009018800090408800a0188000a0408800e5
:101be000b0188000b0408800c0188000c040880055
:101bf000d0188000d0408800e0188000e0408800c5
:101c0000f0188000f040880001408000010f78004b
:101c10001e0078000080fa00000006000a00fa00aa
:101c20000000eb00000f78006000b800100798007b
:101c3000210798000000eb0030079800940037005f
:101c4000bfff07001119800000082000008060001d
:101c50000000e00039003200014080001e007800e2
:101c600000014000008220000000410001087800cf
:101c70001e0fe800114080001e00780000014000a7
:101c80000082200000004100010878001e0fe800db
:101c9000214080001e0078000001400000822000ea
:101ca00000004100010878001e0fe800314080006c
:101cb0001e0078000001400000822000000041006a
:101cc000010878001e0fe800414080001e007800e7
:101cd000000140000082200000004100010878005f
:101ce0001e0fe800514080001e00780000014000f7
:101cf0000082200000004100010878001e0fe8006b
:101d0000614080001e007800000140000082200039
:101d100000004100010878001e0fe80071408000bb
:101d20001e007800000140000082200000004100f9
:101d3000010878001e0fe80038003700814080005d
:101d40001e007800000140000082200000004100d9
:101d5000010878001e0fe800914080001e00780006
:101d600000014000008220000000410001087800ce
:101d70001e0fe800a14080001e0078000001400016
:101d80000082200000004100010878001e0fe800da
:101d9000b14080001e007800000140000082200059
:101da00000004100010878001e0fe800c1408000db
:101db0001e00780000014000008220000000410069
:101dc000010878001e0fe800d14080001e00780056
:101dd000000140000082200000004100010878005e
:101de0001e0fe800e14080001e0078000001400066
:101df0000082200000004100010878001e0fe8006a
:101e0000f14080001e0078000001400000822000a8
:101e100000004100010878001e0fe800301f20007c
:101e20009e007800808f500085ff36000000eb0098
:101e3000400798000f0037004e00900080004000df
:101e40000082200000804000100078008000eb003d
:101e50001e019000ae019000020040008380480007
:101e600010079800210798004e0090000000e8003d
:101e700040079800ce009000301f2000808f500057
:101e8000edff36003e0090000000e80030079800ab
:101e90003e009000e10f5000e0ff34001e00900073
:101ea000ae009000823e20000300200055fc070099
:101eb00010079800210798001e009000ae009000c7
:101ec0000080fa00000006000600fa000000eb00a7
:101ed000000f78006000b8001007980021079800f4
:101ee0000d0037001e0078008000400000822000b6
:101ef00000804000100078008000eb001e01900080
:101f0000ae01900002004000838048001007980056
:101f1000210798001e0fe800301f20009e00780067
:101f2000808f5000efff36001e009000ae00900042
:101f3000421f20000300200032fc07001007980019
:101f4000210798001e009000510020002f0207007a
:101f500011002000a0c0b300aa010700110020005a
:101f6000d0c0b300a70107000080fa0000000600ff
:101f70000000fa00c042a800c082a800c882a800e1
:101f8000c902a9006bc0a8006820a8006800a800ca
:101f900063c0a8006020a8006000a8006105800060
:101fa000f0ff280080806000000025000100700024
:101fb000600588008660a9009660a800c9e2a900b3
:101fc0000080eb00601988000000eb00d5f90700e5
:101fd00000007800a7fd07000080fa00000006005e
:101fe0003600fa00889fbe0040608000e10f50007c
:101ff00032003a009660a9003000200038fe070049
:1020000060c028002e020700f0608000016180009f
:102010000001be0000002c00f14724002bfa07004d
:10202000008fbe00fdfe07008afa07002007980017
:10203000310798001e01be002e009000be009000e7
:1020400022fa070020079800310798002e00900020
:10205000be00900061fa0700400798004e00900013
:102060008000eb007bfa07000001be002e0090000c
:10207000be009000b7f9070002002000832c240066
:10208000c9fa070055fa07005007980051002000d0
:102090004e009000dd010700b0c1280008020700d3
:1020a000210020005e009000d8010700d0c1280068
:1020b000030207009660a800d0000700506080006f
:1020c000e10f500043003a009660a900d0002000c4
:1020d00003fe0700f0c12800f9010700f06080004e
:1020e0000161800002002c00f3472400f7f907008b
:1020f0006007980071079800c8fe070055fa0700ae
:10210000000f9800110f98006e019000fe019000e2
:102110000e0890009e089000a3fa0700000f980098
:10212000110f980002002000a34724000e08900021
:102130009e0890009cfa07000004be00f06080003a
:10214000016180000e0990009e09900081f907004e
:102150000001be000800be00dcf90700200f980057
:10216000310f98002e089000be0890001bfa07005f
:10217000400f98004e0890008000eb0035fa0700f1
:102180000001be000e0890009e08900071f9070043
:10219000020020000312240083fa07000ffa070050
:1021a000500f9800510020004e0890009701070042
:1021b000b0c12800c2010700210020005e08900085
:1021c0009201070060c32800bd0107008b000700d3
:1021d0009660a80060608000e10f500006003a00a1
:1021e0009660a900cd02a8009660a800100020000b
:1021f000906088006600370090608000e10f50001a
:1022000063003a009660a900c0002000b4fd0700fa
:10221000f0608000016180000001be0000002c0021
:10222000f1472400a9f90700600f9800710f98008a
:1022300023020700cdc2a900c9c2a9006e0207008f
:10224000cdc2a80001003700000000003cfe0700de
:102250008000eb00fff907000017980011179800a5
:102260006e099000fe0990000e1090009e109000e4
:1022700096f90700001798001117980018c0b300ce
:1022800002002000030424000e1090009e10900015
:10229000d0f907000000e00001003c000044eb0022
:1022a0000804e000e8ff32005b02070020179800f6
:1022b000cdc2a900122cef002e1090008000eb0080
:1022c000e4f9070002002000a36724007ff907005b
:1022d00030179800411798005239210093ff2300ce
:1022e0003e109000ce10900078f90700501798002b
:1022f0006117980002002000031224005e10900075
:10230000ee10900028fa070070179800011f98003f
:10231000b0c328006a0107007e1090008e1890005c
:10232000aef90700101f98001e1890008000eb0007
:10233000c8f907000001be007e1090008e189000c2
:1023400004f9070002002000832c240016fa07007d
:10235000a2f90700201f9800510020001e189000cd
:102360002a010700b0c12800550107002100200004
:102370002e18900025010700a0c428005001070076
:102380009660a800cd02a9001c00070013000700fa
:10239000506080000000e0000c003a0060608000a7
:1023a0000000e00009003a00406080000000e0000a
:1023b00006003a00b06080000000e00003003a0030
:1023c000cd02a9000500070001003700162cef0020
:1023d0004f04be000080fa00000006000000fa0072
:1023e00000022000130207000140fe0080002000d0
:1023f000100207000080fa00000006000c00fa003e
:10240000182cef00000220000a020700713a800039
:10241000f00f2f008080600000e0200001007000bd
:10242000703a88004f87a900c9c2a80043a1a9003b
:1024300042e1a900110a8000f0f92f00008060003d
:10244000100a8800110a800080ff2f0000806000c1
:102450003000b300100a88008420a900980107000a
:102460009420a8004fe7a80000000000c060800092
:102470000000e000fdff32004fe7a9009420a90012
:1024800080002000eb010700d06080008000eb009e
:1024900070f9070002002000a32724000bf90700b1
:1024a000008fbe001e01be000000200001f82300c6
:1024b00006f907002007980031079800d0c42800cb
:1024c000ff0007002e009000be00900043f90700b7
:1024d000400798004e0090008000eb005df9070077
:1024e0000001be002e009000be00900099f8070089
:1024f00002002000832c2400abf9070037f9070005
:1025000050079800510020004e009000bf000700c7
:10251000b0c12800ea000700210020005e00900002
:10252000ba000700b0c52800e50007000080fa00e7
:10253000000006000000fa00c802a900c822a80096
:10254000cc02a8008000200080118800113a800091
:10255000000027008080600000002600808f50006f
:1025600003003a00c0002000c011880010003700ae
:10257000113a8000000027008080600000002500e4
:10258000808f500003003a00c0002000c011880076
:1025900007003700113a800000002700008060002b
:1025a0000000e00002003a0070062000c011880020
:1025b00000002a009011880087e0a90091058000a2
:1025c000f0ff280080806000000023000100700000
:1025d0009005880097e0a80087c0a90091058000b9
:1025e000f08f2f000080600000a0a0009005880000
:1025f00097c0a90031e2a8003342a8000080fa0089
:10260000000006000400fa00004f7800110798004f
:10261000c8ff07000b003700000000009111800088
:1026200000202000008060000000e000fbff3a0076
:102630001e00fb00a01188001e0090000000e900b1
:10264000100798001e0090000000e000f2ff3a0022
:102650000000000091118000001020000080600048
:102660000000e000fbff320031e2a9000080fa0028
:10267000000006000400fa00100798000040eb007c
:10268000104798001100200000c2b300ddff0700d2
:102690001100200000c3b300daff07001100200082
:1026a00080c7b300d7ff070030c0b300004f7800e9
:1026b000150037001e00fb004200dd009e00900068
:1026c0000008de00004078006f406000104798006e
:1026d0001e409000e94f5000040034001e4090005e
:1026e0007043b00010479800030037001e40900070
:1026f0000043b00010479800110020001e409000d9
:10270000c0ff07001e4fe9001e4078000004e000f3
:10271000e8ff3d001100200000c2b300b9ff070030
:102720000000eb00100798000080fa00000006008f
:102730000600fa0010079800210798000040eb00ff
:10274000104798001100200000c2b300adff070041
:102750001100200000c3b300aaff070011002000f1
:1027600080c7b300a7ff070070c0b300004f780018
:102770001b0037001e00fb004201dd001e00900020
:10278000ae009000820178008301e900030033006d
:102790008100d1000080d300fbff370000407800ab
:1027a0006f406000104798001e409000e94f5000b5
:1027b000040034001e4090007043b00010479800a1
:1027c000030037001e4090000043b00010479800ff
:1027d000110020001e4090008aff07001e4fe900f4
:1027e0001e4078000004e000e2ff3d0011002000e0
:1027f00000c2b30083ff07006000b8001007980014
:10280000210798000080fa00000006000a00fa0084
:10281000889fbe0030079800410798004e00900046
:102820000040780051c0b30000cf50001e003700b8
:102830003e0090008000eb0086f807000004be0018
:102840001e80fb0064001000cf80de007ef80700d1
:102850000001be00000020000112240006f907005c
:102860000001be000800be0018f807005bf8070072
:10287000100798001e019000d0cc2c000010b8006a
:102880004308de006a00b900000078000000510033
:10289000404798004e4090000043b00011002000d7
:1028a00058ff07001e4fe8001e407800e44f50001c
:1028b000dfff36004f04be000080fa000000060073
:1028c0000400fa00100798000000eb00000f7800e9
:1028d000060037001e0090001e00400010407800e7
:1028e0001100200047ff07001e0fe8001e009000a7
:1028f00071fb07009e0f5000f6ff31000080fa00c8
:10290000000006000000fa003c23ef003de3a900b0
:102910003d83a8003c83a9003ce3a9003e23ef00cf
:102920003f03a9003f23a90021e3a90021a3a90097
:1029300001198000f0cf2f0000806000001988008e
:1029400001198000f0f12f0000806000001988005c
:102950002043a9002023a90011198000f0ff2100c5
:1029600000806000101988002343a900111980001d
:1029700030fc2f0000806000101988002223a9007d
:102980002203a90025e3a90021198000f00f2e00e1
:1029900000806000201988002119800000fc2f00b1
:1029a000008060002019880029e3a90041198000f7
:1029b000f00f2f00808060000030200001007000c8
:1029c0004019880028e3a9004119800000ff2f006a
:1029d000008060003000b30040198800c822a800c1
:1029e0002c63a90021e3a8003de3a8000080fa00c1
:1029f000000006000800fa000000eb00000f78005d
:102a00000000eb00200798000000eb001007980082
:102a10002b000700bbff0700800020008500070097
:102a20000000eb00000f7800190037002023a800f9
:102a30003d23a800a0002000670007003d23a90057
:102a40003c03a800a0002000630007003c03a9008d
:102a500085a0a9002023a900000000002104800017
:102a600000002200008060000000e000fbff320058
:102a7000011880002107980085a0a9009e00900001
:102a80002e00900000804000100798001e0fe80004
:102a90001e0078000000e000e4ff34009e0090007b
:102aa000310798000000eb0010079800800020001c
:102ab000600007003e0090000080fa000000060061
:102ac0000000fa0011a1a9001061a9001021a900bd
:102ad0001081a80010a1a80031058000f0ff280097
:102ae0008080600000002300010070003005880035
:102af00094e0a8000080fa00000006000400fa003c
:102b00001007980084e0a9001e0090004400dd003a
:102b1000000f78009e007800610888000621ef0011
:102b200011e1a8000080fa00000006000200fa008f
:102b300011e1a90031088000010f78000621ef00a3
:102b40001e0078000080fa00000006000000fa0075
:102b500013a1a9001061a9001221a9001281a800e7
:102b600012a1a80031058000f0ff280080806000dd
:102b70000000230001007000300588009500a800c7
:102b80000080fa00000006000400fa001007980018
:102b90008500a9001e0090004400dd00000f7800b1
:102ba0009e007800710888000a21ef0013e1a80058
:102bb0000080fa00000006000000fa0010618000aa
:102bc0000000e00002003a0013e1a9000a21ef0032
:102bd0000080fa00000006000200fa00000f7800f2
:102be0001e007800c5ff07000140fe00cfff070070
:102bf0000080fa00000006000000fa00100020002b
:102c00001061880080382100bcff07000140fe00f1
:102c10000080fa00000006000200fa00c3ff07006f
:102c2000000f7800222cef001e0078000080fa00d0
:102c3000000006000400fa00100798001e00900033
:102c4000e80f500003003a000040eb00004f78000e
:102c5000100037009e009000401f2000808f500021
:102c600003003a0060c6b300004f78000900370047
:102c70009e00900000022000808f500003003a0068
:102c800050c5b300004f78000200370050c5b300b4
:102c9000004f780011028000000e2000010070003b
:102ca00010028800213a8000f08f2f000080600021
:102cb000203a88001e01fb0080072000a1092000a7
:102cc0003374200080497800814978008249780077
:102cd00012002000600420007105200023742000f1
:102ce0008049780081497800824978004207a8002d
:102cf00000000000103a8000610060000000e00069
:102d0000fcff3a0011028000f0f12f00008060000b
:102d1000100288000080fa00000006000000fa009f
:102d2000c0c2a900c822a8002c63a9009640a9002f
:102d300037c6a80037a6a900b1318000f0f32f00f4
:102d400000806000b03188003686a900b031800074
:102d50003000b300b03188008640a90037e6a800f3
:102d6000c822a8002c63a9009640a90035c6a90076
:102d700035a6a900a1318000f0f32f00008060008b
:102d80000070a000a03188003486a800a131800026
:102d9000c0ff2f00008060000000a000a03188006c
:102da00035e6a80080082000903188003526a9006b
:102db0008640a9009640a8000080fa0000000600a6
:020000040000fa
:102dc000080c000016000000000000001e0c0000af
:102dd000040000000200000000006000400000004d
:102de000220c00000200000000000000240c000083
:102df00002000000000000000008000008040000bd
:102e000000000000260c000002000000000000008e
:102e1000b20c0000040000000200000001000000ed
:102e200000000000280c00008a00000000000000e4
:042e3000000000009e
:020000040000fa
:102e34000400fa00000f7800110798004bfc07000b
:102e4400e0c528009dfe070050c628009bfe070031
:082e540062fc0700fcff3700df
:020000040000fa
:0200000401f009
:04000000ffffff00ff
:020000040000fa
:0200000401f009
:04000800ffffff00f7
:020000040000fa
:0200000401f009
:04000c0000000000f0
:020000040000fa
:0200000401f009
:040010007b00000071
:020000040000fa
:0200000401f009
:040014005f00000089
:020000040000fa
:0200000401f009
:04001800f3000000f1
:020000040000fa
:0200000401f009
:04001c00c20000001e
:020000040000fa
:0200000401f009
:040020007f0000005d
:00000001FF
